:020000040800F2
:10000000A892002015280008A5080008A9080008E3
:10001000AD080008B1080008B5080008000000009D
:10002000000000000000000000000000212D00087A
:10003000B908000800000000AD2D0008F12D0008EF
:10004000152800081528000815280008152800089C
:10005000152800081528000815280008152800088C
:10006000152800081528000815280008152800087C
:10007000E1010008290200081528000815280008D9
:10008000152800081528000815280008152800085C
:10009000152800081528000815280008191B000855
:1000A000152800081528000815280008152800083C
:1000B000152800081528000815280008152800082C
:1000C000152800081528000815280008152800081C
:1000D0001528000815280008ED0A0008890B0008FB
:1000E00015280008152800081528000815280008FC
:1000F00015280008152800081528000815280008EC
:1001000015280008152800081528000815280008DB
:1001100015280008152800081528000815280008CB
:100120001528000808B54FF4407002F02DFB00F0D0
:100130008BFE01F047FF00F07DFABDE8084001F0BA
:100140001BBD00BF10B584B0002400F01BFCFFF7FE
:10015000E9FF01238DE81800029423460394174910
:100160004FF48062164802F0ABFE02222346009252
:1001700001940294039413494FF48062124802F0F0
:100180009FFE0322234600920194029403940F4998
:100190004FF480620E4802F093FE04222346009240
:1001A0000C494FF480620194029403940A4802F0CF
:1001B00087FE02F04FFF204604B010BD20C40008A7
:1001C000250F000828C40008DD1F00082CC4000803
:1001D0005907000830C40008211C0008704700BF00
:1001E00038B50E4C00252020256002F0BFF900B97B
:1001F00038BD102002F0C8F90948294602F0A0F9DC
:100200002B4629466068224603F066FD2368002BD2
:10021000EED0044B4FF080521A6038BD0801002028
:100220001C60024004ED00E008B54FF4007002F0DD
:100230009DF900B908BD4FF4807002F0A5F9BDE842
:1002400008400248002102F07BB900BF3060024044
:100250002DE9F04F4FF480508BB0012102F008F9E6
:100260004FF08070012102F0F7F80120624D014645
:1002700002F0F2F8052128460A4602F009F828465D
:10028000072105220AAF02F003F84FF0200B0522E8
:100290002846062101F0FCFF47F81CBD002401267A
:1002A0000223394628468DF810308DF8133001931B
:1002B0004FF0800A8DF812408DF8116001F090FF28
:1002C00039462846CDF80CA001F08AFF4022394675
:1002D00028460392DFF8348101F082FF4FF01009C5
:1002E000394628468DF810608DF812408DF813407D
:1002F0008DF81160CDF80C9001F072FF4946284648
:1003000001F0C2FF404602F049F94FF40077404641
:100310004FF4827205A90725ADF82450ADF81620D8
:10032000ADF820B0ADF81440ADF81840ADF81A4063
:10033000ADF81C40ADF82240ADF81E7002F064F933
:1003400040463146324602F08DF9019B404619463F
:10035000324602F087F9324628480A2102F0FCF8BA
:1003600032460A21264802F0F7F80C2502A88DF83B
:1003700008508DF809508DF80A408DF80B6002F096
:100380000DFA02A80D238DF809508DF808301D4D87
:100390008DF80A408DF80B6002F000FA1A4A4FF40B
:1003A00000533046EB62AB65AA606A63C5F81090F3
:1003B0002C626C62AC61C5F81CA0AC622C636C61F1
:1003C000EC60EC642C656C64C5F848A06C65EC6569
:1003D000EC632C64AC6303F059FC214628660322CD
:1003E000304603F0B3FB31466860404602F02CF91A
:1003F0000BB0BDE8F08F00BF000002401C6002405F
:1004000030600240080100200C3001400030014003
:10041000F0B5234C0E46002183B00B461546074627
:100420004FF0FF32206E03F097FC04F108011D48E5
:10043000E760656102F064F804F134011A4825644C
:10044000A66302F05DF81948102101F01FFF002398
:100450000193019B312B07DC019B0193019B01332D
:100460000193019B312BF7DD0F48012102F068F861
:100470000C48012102F064F800210B464FF0FF32D6
:10048000606803F069FC0948102101F0FDFE0021BD
:10049000206E0A460B4603F081FB03B0F0BD00BF9F
:1004A00008010020306002401C6002400000024051
:1004B00000487047C8880020FEE700BF70B5124DA5
:1004C000002382B068702B7041B14E1EF6B2013627
:1004D000D45CE8180133B3428470F9D10B4C8A1C08
:1004E000D2B221460848FFF793FF227863780020B4
:1004F00043EA0223DCB206491A0A64F3070062F3F6
:100500000F200B8002B070BDCC880020308A002004
:100510006C01002030B50D4B0D4C5870214618462B
:1005200083B0802502221D70FFF772FF2278637866
:10053000002043EA0223DCB2064A190A64F30700EA
:1005400061F30F20538003B030BD00BFCC88002082
:10055000308A00206C010020F0B5154B154C0E467A
:100560000231587083B0184615460127CAB2214699
:100570001F70FFF74DFF227863780F4943EA02238B
:100580008B804EB1721ED2B23A440023E0188078BC
:10059000E85401339342F9D18B880020DAB262F338
:1005A0000700C3F3072363F30F2003B0F0BD00BFC0
:1005B000CC880020308A00206C01002070B5134DDB
:1005C000FF22002382B06A702B7040B1461EF6B243
:1005D0000136CC5CEA180133B3429470F9D10C4C6B
:1005E000821C2146D2B20948FFF712FF22786378B5
:1005F000002043EA0223DCB206491A0A64F307002A
:1006000062F30F20CB8002B070BD00BFCC88002009
:10061000308A00206C01002008B505484FF4807135
:1006200001F034FEBDE808400A2002F047BE00BFDA
:100630000000024030B583B0FFF70AFE01200146FA
:100640000D4D01F009FF4FF4807402A9012200232F
:1006500041F8084D284669468DF804208DF805209C
:100660008DF806308DF8073001F0BAFD2846214696
:1006700001F00AFE03B030BD000002402DE9F8434E
:10068000244F6924992265233C707A70BB7000293D
:100690003CD0DFF884E000220A240323865C4FEA82
:1006A000041C340906F00F061EF804501EF806401C
:1006B00005F00F092609013203F1010846EA09197C
:1006C000D6B24CEA15155FFA88F803F1020CB14274
:1006D000FD5404F00F0407F808905FFA8CF3DDD89E
:1006E000490001F203112401C9B244F00A04722046
:1006F0007C5404F009FC07493820FFF75FFF04F041
:10070000BFFDBDE8F843602004F0FEBB0321AA242E
:10071000EDE700BFD089002038C4000808B5672085
:1007200004F0F2FB0C2004F0DBFF012003F012FECA
:1007300004F0A6FDBDE80840602004F0E5BB00BF62
:1007400008B5672004F0E0FB002004F0C9FFBDE815
:100750000840002003F0FEBD30B583B0FFF75CFF1A
:1007600003F0AAFBB0F5987F21D0202302A941F81D
:10077000083D01220023694644488DF804208DF885
:1007800005208DF806308DF8073001F029FD202175
:100790003E4801F079FD962002F090FD3B48202173
:1007A00001F074FD40F2523002F088FDEFE7384866
:1007B00004F0A4FB022003F097FB052000F02EF9C3
:1007C000344C038806202380656800F027F903680D
:1007D00009201D44656000F021F903782046237349
:1007E00004F016FA04F11C0004F068FE382004F04E
:1007F00015FF042000F012F904680B2000F00EF938
:100800002549006808F0B4F80146204608F0B0F821
:100810002149044608F072FB002834D120461F49C4
:1008200008F04EFB00B11D4C2146002003F0B8FD3E
:10083000002003F089FE0A200821002203F086F937
:10084000174C2060002369464FF0FF3203F084FA12
:100850009DF80130013B032B05D8DFE803F00B06C0
:100860001102FFF76DFF2068ECE79DF8040003F02C
:1008700089FCF8E701989DF80210FFF7FFFEF2E708
:10088000FFF74CFFEFE7044CCEE700BF000002404B
:1008900080BA8C0100000020000040410000F8C137
:1008A000C8880020704700BFFEE700BFFEE700BF1A
:1008B000FEE700BFFEE700BF704700BF0F4B0121FE
:1008C0000F4AF0B4197015680E4C002225F07F45D0
:1008D0000D4904204FF496574FF4165645F0E06545
:1008E00098771A775A77DA775F609E60DD601C61CF
:1008F00019629A829A61F0BC704700BF78010020AB
:100900005000F81F000060410000684170B501F020
:10091000D5FC41F6027001F0E9FC144C144D204660
:10092000013401F021FDAC42F9D1104C114D104EB3
:100930002B1903F1774303F5780320461978013426
:1009400001F01EFDB442F3D10B4B0C4800240C4ABD
:10095000E9180A44127813F8011F914218BF0124C4
:100960008342F4D101F0BAFC204670BD00000808B3
:100970002400080878010020FFFF0708230008086A
:100980000100F8F738B50B4B0B4D0C4C13F8011B5D
:100990000948EA1802F1F732A34282F80818F5D1A3
:1009A0000378012B05D0FFF789FFBDE83840FFF73A
:1009B000ADBF38BD000008087801002024000808F9
:1009C0002DE9F041144E0F4600F10065044605F58F
:1009D000002506EB000801F071FCCFB17E1EF6B2D7
:1009E000A6F1F737A7F6080727442C46204601341E
:1009F00001F0BAFCBC42F9D1013644464644C8EB8A
:100A00000505601914F8011B01F0BAFCB442F8D1D5
:100A1000BDE8F04101F062BC780100200138C0B2AD
:100A20000A289ABF024B53F820000020704700BFED
:100A300048C4000801380A2854D8DFE800F00D1433
:100A40001B222930373E454C06000A68264B2020E1
:100A500004211A62FFF7B4BF0A68234B0420014641
:100A60005A60FFF7ADBF0A681F4B082004219A6047
:100A7000FFF7A6BF0A681C4B0C200421DA60FFF7C1
:100A80009FBF0A68184B102004211A61FFF798BF16
:100A90000A88154B142002219A82FFF791BF0A6839
:100AA000114B182004219A61FFF78ABF0A780E4B78
:100AB0001C2001211A77FFF783BF0A780A4B1D20FB
:100AC00001215A77FFF77CBF0A78074B1E200121CE
:100AD0009A77FFF775BF0A78034B1F200121DA7759
:100AE000FFF76EBF704700BF7801002030B50023CC
:100AF00085B0224840F22771019301F04BFB012899
:100B00000FD01E4840F2255101F044FB0128044655
:100B100022D0019B1BB11A4B4FF080521A6005B0D6
:100B200030BD184C258865B92A46144840F2277113
:100B300001F012FB294660682B4601AA03F0CCF8AD
:100B4000DFE7A3680D485A1C1978A26001F0FCFA8F
:100B50002388013B2380D4E7084801F0F9FA094BC8
:100B6000DB68002BD5D08DF808408DF80900186897
:100B700002A901AA002303F0AFF8CAE7004400402D
:100B800004ED00E09C01002070B5274884B00024EB
:100B900040F22551019401F0FDFA0128054607D0E5
:100BA000019B1BB1214B4FF080521A6004B070BD05
:100BB0001D4801F0CDFAC0B224280DD01C4D0A28E2
:100BC0002B7C03F10102D2B22B442A74187507D092
:100BD000130648BF2C74E3E7154B1D741875DFE747
:100BE0002B7D242B02D000232B74D9E7D5F8943029
:100BF000002BF8D0AB1805F114010132D5F898009C
:100C00001C7500F065FFD5F89420022304A901F8B3
:100C1000083D2E7C03902346106801AAADF80A60B7
:100C200003F05AF8DFE700BF0048004004ED00E0A1
:100C30009C0100202DE9F0438146012089B02D4E12
:100C4000014601F009FC4FF40030012101F01CFCC9
:100C500030460221072201F01BFB07223046032108
:100C600001F016FB08AF042347F8183D00240125C6
:100C7000394630460223DFF884808DF80C308DF839
:100C80000D508DF80F508DF80E4001F0A9FA39463D
:100C900030460823029301F0A3FA0C23404604A92E
:100CA000ADF81A30CDF81090ADF81440ADF81640FC
:100CB000ADF81840ADF81C4001F0DAF940F22551CA
:100CC00040462A4601F048FA26220E2301A88DF854
:100CD00005308DF804208DF806408DF8075001F09E
:100CE0005DFD284602F0D2FF034B586009B0BDE815
:100CF000F08300BF000002409C010020004400403F
:100D0000014BD860704700BF9C01002070B50A4CB1
:100D10000E46002105460B4660684FF0FF3203F097
:100D20001BF8A5602680054840F227710122BDE826
:100D3000704001F011BA00BF9C0100200044004047
:100D400010B5084C00210B4660684FF0FF3203F0ED
:100D500003F8002160680A460B46BDE8104002F027
:100D60001DBF00BF9C0100202DE9F043012189B087
:100D70002C4D8146042001F06FFB4FF480200121AF
:100D800001F082FB28460A21072201F081FA07229E
:100D900028460B2101F07CFA08AF4FF4806347F836
:100DA000183D00240126394628460223DFF87C80BE
:100DB0008DF80C308DF80D608DF80F608DF80E40B9
:100DC00001F00EFA394628464FF40063029301F011
:100DD00007FA0423404604A9ADF81A30CDF8109064
:100DE000ADF81440ADF81640ADF81840ADF81C4011
:100DF00001F03EF94046324640F2255101F0ACF98F
:100E0000094927220D2301A88DF806408DF80760B7
:100E10000C748DF804208DF8053001F0BFFC09B08A
:100E2000BDE8F083000802409C010020004800401B
:100E3000014BC3F8980070479C010020014BC3F898
:100E4000940070479C01002008B50120FFF7E6FDE3
:100E500020B10068BDE80840FFF7ECBE08BD00BF48
:100E6000014B1860704700BF388B0020014B1860A1
:100E7000704700BF408B002038B50C46054609F08E
:100E800071F881B22846FFF741FF04B938BDBDE8CB
:100E90003840FFF755BF00BF38B5214D044601214A
:100EA00028462C70FFF732FF0D2C1AD00A2C0CD0DC
:100EB000082C95F8E83009D07F2C07D0632B04D894
:100EC000EA180133147185F8E83038BD144A002B54
:100ED000FBD0013BDBB2D118002082F8E83008716A
:100EE00038BD0A23284601212B70FFF70FFF0C4C59
:100EF000802204F16801201D01F078FD01210546E2
:100F000004F16800FFF7B8FF002DF0D184F8E85035
:100F1000201D29466422BDE8384008F0A8BF00BF64
:100F2000380200202DE9F04F002287B008210A2066
:100F300002F00CFE394C20602046FFF7E1FE00F085
:100F400065FD3748012101F0F1F836480121FFF72E
:100F500093FF5D2001F0BCFA28B133480121FFF76F
:100F60008BFF01F0C5FA314E314FDFF8CC90B0461F
:100F7000BA46CB460125206802A94FF0FF32002374
:100F800002F0EAFE9DF808C0BCF1010FF3D19DF814
:100F90000900242835D0012D38D033780A2803F1F0
:100FA0000101C9B2F854317035D1224A02331068B8
:100FB0000025DAB288F800200AF8015048B3D9F8C1
:100FC000003033B31A49CDF804C000F081FDDDF8DC
:100FD00004C0DBF800208DF810C098F800E0059000
:100FE0002B46106804A94FF0FF326546ADF812E0B9
:100FF00002F0D4FD98F80020632ABCD90023337096
:10100000B9E786F800C038700025B4E7FFF744FF61
:10101000B1E76546F0E70A460025EDE73C8B002086
:101020000044004074C4000890C40008348B0020C1
:10103000448B0020388B0020408B0020BFF34F8F63
:10104000044A054BD16801F4E0610B43D360BFF360
:101050004F8FFEE700ED00E00400FA0510B582B006
:10106000044601F035FE6423C0F5004203FB02F3A1
:10107000002BBCBF03F5FF437F33DB1300932046F7
:1010800003494FF4004308F03FFF002002B010BDB9
:10109000E8C5000810B50B4B0A46C1F3016153F8CF
:1010A000213084B0C2F38461002A22F07F4401938E
:1010B0000091ACBF202370230294034908F024FF61
:1010C00004B010BDA0C400080CC6000800B5084A52
:1010D000084B116883B01B680432009112680649FE
:1010E0000192064A08F010FF002003B05DF804FBEF
:1010F0005400F81F5000F81F34C6000864C60008EA
:10110000F0B583B0002304460121104601AA8DF8F2
:10111000033001F0D9FC054680B1254908F018FFDD
:1011200000B32846234908F013FF58BB01238DF86C
:10113000033008200DF10301FFF77CFC0820FFF7C6
:101140006DFC0378E3B1012B0FD01B4D0FCD2E8822
:10115000AD7820606160A260E3602682A574002003
:1011600003B0F0BD8DF80300E3E7144D0FCD2D88DB
:101170002060002025826160A260E36003B0F0BDC2
:101180000F4DE3E70F4E06F1200735460FCDBD4268
:1011900020606160A260E3602E4604F11004F4D187
:1011A0002868AA88AB792060A280A371D7E700BF26
:1011B0006CC6000870C60008C4C60008B0C60008A7
:1011C0009CC6000874C6000830B583B000230446EE
:1011D0000121104601AA8DF8033001F075FC054687
:1011E00080B1174908F0B4FED0B12846154908F07F
:1011F000AFFE10B901238DF8033007200DF1030174
:10120000FFF718FC0720FFF709FC03785BB10E4DD0
:101210000FCD206000206160A260E36003B030BDAC
:101220008DF80300E9E7094B07CB1D889B78206008
:1012300000206160A260A581A37303B030BD00BF30
:10124000D8C60008DCC60008F0C60008E0C60008E2
:1012500070B582B0002304460121104601AA8DF822
:10126000033001F031FC054678B1184908F070FEF2
:10127000D8B12846164908F06BFE08B98DF803006E
:101280000A200DF10301FFF7D5FB0A20FFF7C6FB8B
:10129000037873B90F4D0FCD20602868616020611D
:1012A0000020A260E36002B070BD01238DF803301E
:1012B000E6E7094D0FCD2E88AD78206000206160F3
:1012C000A260E3602682A57402B070BDD8C6000893
:1012D000DCC6000814C7000800C7000830B583B09A
:1012E00001210546104601AA01F0EEFB044608F074
:1012F0009EFDC2B28DF8032034B1062A12D809200F
:101300000DF10301FFF796FB0920FFF787FB037838
:1013100008495AB228468DF8033008F0F5FD002040
:1013200003B030BD284652B2034908F0EDFD00205D
:1013300003B030BD48C7000828C7000810B50446F0
:10134000002000F03DFE03490246204608F0DCFD87
:10135000002010BD5CC7000810B5044600F030FE48
:10136000204608F0FFFD024B1B882352002010BDD1
:1013700070C70008A0F13003DBB2092B10D9A0F12F
:101380004103052B08D9A0F16103052B9ABF5738FB
:10139000C0B2FF2040B270473738C0B240B2704789
:1013A000D8B240B2704700BF38B504460078FFF7A6
:1013B000E1FF05466078FFF7DDFF25EAE57320EAE7
:1013C000E07040EA0310C0B238BD00BF2DE9F04123
:1013D00082B005460121104601AA01F075FB019F6C
:1013E0008046FB075BD4002F29DDC619044601E0C7
:1013F000B44219D014F8010BFFF7BCFF0130F7D14C
:10140000314E06F1200734460FCCBC42286069609B
:10141000AA60EB60264605F11005F4D12388002070
:101420002B8002B0BDE8F081284E002408EB0400B8
:10143000FFF7BAFF63100234A742F054F6DCC7F39B
:10144000470222482249FEF7E3FF019E7610002E54
:1014500035DD1F4F0023FA5C59001409092C02F0F6
:101460000F02C9B28CBF373430340133092A8CBF24
:10147000373230326818B3426C544270EBD15B00A3
:10148000DBB2581C9A1CC0B2D2B20D260A24EE540C
:1014900000212C540020A95402B0BDE8F0810D4C6D
:1014A0000FCC28606960AA6007CC248828610020DE
:1014B000EB60AC836961AA6102B0BDE8F0810222F1
:1014C00001200023E1E700BF94C70008A88C00209A
:1014D000A88B002074C7000810B584B00446012111
:1014E000104601AA01F0F0FAF0B102A90A2209F0AF
:1014F00055FC029B039043B11B7833B900F5C342FE
:1015000028324CF250339A4202D9002004B010BD68
:1015100003A90620FFF78EFA20460949039A08F02E
:10152000F3FC002004B010BD0620FFF777FA054950
:101530000268204608F0E8FC002004B010BD00BF9F
:10154000B8C70008DCC7000810B584B00446012104
:10155000104602AA01F0B8FAF8B103A90A2209F06C
:101560001DFC039BADF8060033B11B7823B900F1D5
:10157000320292B2642A02D9002004B010BD0DF1EB
:1015800006010520FFF756FA20460A49BDF9062054
:1015900008F0BAFC002004B010BD0520FFF73EFAA9
:1015A0000549B0F90020204608F0AEFC002004B048
:1015B00010BD00BFF0C7000818C80008F0B585B01E
:1015C00004460121104601AA01F07EFA50B302A997
:1015D000102209F0E3FB029B03900BB11B78B3B11F
:1015E000154E06F1200735460FCDBD4220606160E3
:1015F000A260E3602E4604F11004F4D107CE3388D4
:1016000020600020A3816160A26005B0F0BD03A945
:101610000320FFF70FFA20460399FFF73BFD002058
:1016200005B0F0BD0320FFF7F9F901682046FFF788
:1016300031FD002005B0F0BD30C8000870B584B0A1
:1016400005460121104601AA01F03EFAD8B102A9CF
:1016500009F00AFB029B03902BB11B781BB92C49A4
:1016600007F042FC58B92B4C0FCC2860696003CCC2
:1016700028610020AA60EB60696104B070BD0B2096
:1016800003A9FFF7D7F90B20FFF7C8F90468002179
:10169000204607F015FCF8B9204606F0DFFD06F0FD
:1016A00073FB07F0C9F8064607F018FA0146204612
:1016B00007F05EF9184907F065FA06F0CFFD06F06D
:1016C00063FB07F0B9F8034628463246134908F091
:1016D0001BFC002004B070BD04F10044204606F05D
:1016E000BDFD06F051FB07F0A7F8064607F0F6F936
:1016F0000146204607F03CF9074907F043FA06F097
:10170000ADFD06F041FB07F097F876420346DBE7B4
:101710000000F0C160C800080000204178C800083F
:10172000F0B585B005460121104601AA01F0CCF9BB
:1017300000282FD002A909F097FA03900B20FFF799
:101740006DF9029B066863B11B7853B9039C344959
:10175000204607F0C9FB20B13046214607F0C4FB04
:10176000A0B9304E06F1300734460FCCBC42286099
:101770006960AA60EB60264605F11005F4D1206887
:10178000A38828600020AB8005B0F0BD042003A929
:10179000FFF750F90420FFF741F9046800212046C3
:1017A00007F08EFBF8B9204606F058FD06F0ECFA7B
:1017B00007F042F8064607F091F90146204607F087
:1017C000D7F8194907F0DEF906F048FD06F0DCFA13
:1017D00007F032F8034628463246144908F094FBD5
:1017E000002005B0F0BD04F10044204606F036FDAF
:1017F00006F0CAFA07F020F8064607F06FF901462E
:10180000204607F0B5F8084907F0BCF906F026FDB8
:1018100006F0BAFA07F010F876420346DBE700BF9D
:101820000000F8C194C8000800002041CCC800089E
:101830002DE9F04184B006460121104601AA01F0CD
:1018400043F9019B0546342B36D10024285DFFF770
:1018500091FD013004F101043FD0342CF6D1274F23
:1018600000242819FFF7A0FD63100234342CF8542B
:10187000DFF88880F5D1FEF71BFE012304A901F8EB
:10188000083D8DF809301A240068ADF80A401C4C58
:101890004FF0FF320023CDF80C8002F07FF90FCC1F
:1018A0002588A47830607160B260F3603582B474CA
:1018B000002004B0BDE8F081124C0FCC30607160A4
:1018C00003CC2588A47830610020B260F360716198
:1018D0003583B47604B0BDE8F0810B4D05F12007E7
:1018E0002C460FCCBC4230607160B260F36025467C
:1018F00006F11006F4D123883380D9E7A88D0020A3
:1019000000C90008E4C8000894C7000830B583B0D7
:101910000546012110466A4601F0D6F810B308F0DA
:101920008AFA164B019003F1180453F8042F9042E1
:101930000CD0A342F9D1124C0FCC2488286000208F
:101940002C826960AA60EB6003B030BD01A902205F
:10195000FFF770F828460B49019A08F0D5FA0020E5
:1019600003B030BD0220FFF759F807490268284646
:1019700008F0CAFA002003B030BD00BFACC40008B4
:1019800030C9000844C9000814C9000830B583B044
:101990000546012110466A4601F096F810B308F09A
:1019A0004AFA164B019003F1180453F8042F9042A1
:1019B0000CD0A342F9D1124C0FCC2488286000200F
:1019C0002C826960AA60EB6003B030BD01A90120E0
:1019D000FFF730F828460B49019A08F095FA0020E5
:1019E00003B030BD0120FFF719F807490268284607
:1019F00008F08AFA002003B030BD00BFACC4000874
:101A000030C9000890C9000870C9000810B5254CFD
:101A100004F1280000F0D2FF04F1380000F0CEFFFE
:101A200004F1480000F0CAFF04F1580000F0C6FFBE
:101A300004F1680000F0C2FF04F1780000F0BEFF7E
:101A400004F1880000F0BAFF04F1980000F0B6FF3E
:101A500004F1A80000F0B2FF04F1B80000F0AEFFFE
:101A600004F1C80000F0AAFF04F1D80000F0A6FFBE
:101A700004F1E80000F0A2FF04F1F80000F09EFF7E
:101A800004F5847000F09AFF04F58C7000F096FF66
:101A900004F5947000F092FF04F59C70BDE81040CE
:101AA00000F08CBFA0C4000830B4084A4FF40074A2
:101AB00002F1080505EB402502EBC003002142F8C6
:101AC00030501846DC80998030BC704724030020D9
:101AD000F0B4C38886889C1BA24218DC374651B1FB
:101AE0004AB100230468CD5C3444E55401339A4282
:101AF000F8DC8688C388324492B29A422ABFC3EB8C
:101B000002038280838000683844F0BC7047002460
:101B1000274684802646E2E708B5402000F0ECFD29
:101B200000B908BD402000F0F1FD00F0C7F9002821
:101B3000F7D0024B4FF080521A6008BD04ED00E070
:101B400000487047C48D002008B50720FEF766FFE7
:101B5000037803B108BD45F2555000F0F3FD0420B1
:101B600000F0F6FD40F6FF7000F0F8FD00F0FCFD1F
:101B7000BDE8084000F000BE30B5042085B001216A
:101B800000F06AFC0120014600F072FC00240125EF
:101B9000694611488DF804408DF806408DF80740DD
:101BA0008DF8055000F01CFB0621022000F0B4FD6A
:101BB000082340220DEB030002928DF80D308DF8C2
:101BC0000C408DF80E5000F057FDFFF7BDFF00F000
:101BD000C5F905B030BD00BF0008024010B50128AE
:101BE00082B001D002B010BD4FF47A7001F066FBF4
:101BF000FEF75EFC0028F5D0032302A98DF8013022
:101C000001F8083D00240068694623464FF0FF3282
:101C10000194ADF8024001F0C1FF02B010BD00BF59
:101C20002DE9F04F082187B000220A2001F08EFF35
:101C3000434C20600820FEF7F1FE0678002E48D0C5
:101C4000012E46D13F4B40F29D3508204FF47A716A
:101C500002221D601871D9601A743A4800F05CF9CC
:101C6000002517210B22012301A88DF804108DF8FF
:101C700005208DF807308DF8065000F08FFD3046B6
:101C8000FFF7ACFF1A260023206802A94FF0FF32AD
:101C900002F062F89DF80930052B16D0062BF2D120
:101CA00001220323002DEED08DF811208DF8103085
:101CB0000595ADF81260FEF7FBFB04A94FF0FF326B
:101CC0000023006801F06AFFDDE705F0C9FD054665
:101CD000D9E71C4BC82003214FF42F724FF0070E99
:101CE00004274FF4FA7540F29D3B4FF0080A40F28A
:101CF000B6394FF005084FF47A7C18601977062042
:101D000002215A624FF46172C3F848B083F84CA0C4
:101D1000C3F8549083F85880C3F860C083F804E097
:101D200083F828E09F6083F84070DD609D6118743F
:101D300083F83400D96283F864101A63DA638CE79D
:101D4000C48D0020C88D002030B50D4B83B01B68BA
:101D5000A3B10C4D00241A6828680421234600947E
:101D600001F01EFD084B2D681C7001F0A5F90094D0
:101D7000024623462846012101F012FD03B030BD82
:101D8000888E0020908E00208C8E0020F0B5474C6D
:101D9000474D2278286802EB420300EB8303197950
:101DA00085B001399E6807297ED8DFE801F0293324
:101DB00037424D666C0400F0D7FC2178286801EBAF
:101DC000410300EB83030131C9B21B6801EB4102FF
:101DD000217050F82220374D0024D21A286823465B
:101DE0000421009401F0DCFC2D6801F065F90094F9
:101DF000024623462846012101F0D2FC05B0F0BD81
:101E00002C4A0023106803211A46009301F0C8FCF5
:101E100005B0F0BDFFF798FF05B0F0BD26482021C2
:101E200000F032FA2178286801EB410300EB8303CC
:101E3000C9E72148202100F029FA2178286801EB20
:101E4000410300EB8303BEE7FFF77AFE002604A9F7
:101E500005238DF8093001F8086D006833464FF00E
:101E6000FF320396ADF80A6001F098FE21782868E9
:101E700001EB410300EB8303A5E7FFF761FE0026BA
:101E800004A90623E5E7FEF713FB0027022304A9B4
:101E90008DF8093001F8087D00683B464FF0FF32AD
:101EA0000396ADF80A70DFE711468CE78C8E0020B0
:101EB000888E0020908E00200008024030B5134B21
:101EC00085B01B68002402940394C3B1104D1A68B6
:101ED0002868092102AB009401F062FC0D4B2D68CB
:101EE0001C7001F0F5F803AB024600942846062169
:101EF00001F056FC029B13B1012005B030BD0398E0
:101F0000003018BF012005B030BD00BF888E002012
:101F1000908E00208C8E0020F0B50D4D0D4F83B0BB
:101F200000240646026823462868042100943E6087
:101F300001F036FC084B2D681C7001F0BDF80094D0
:101F4000024623462846012101F02AFC03B0F0BDD9
:101F5000908E0020888E00208C8E0020F0B504200A
:101F600085B0134F012100F077FA202604A901243F
:101F7000002541F8086D38468DF80C408DF80D406D
:101F80008DF80E508DF80F5000F02AF93846314682
:101F900000F07CF90749234600912A464FF47A71F4
:101FA000054801F0DDFB054B186005B0F0BD00BF32
:101FB000000802408D1D000824CD0008908E0020EE
:101FC00004F078BE08B50220FEF728FD20B10068B5
:101FD000BDE80840FEF7C8BE08BD00BF30B583B0FD
:101FE00003F0CCFF0320FEF719FD006804F016F89B
:101FF0000020FFF759FD1B4D1B4C2860FEF718FF12
:102000002868FEF72DFF082100220A2001F09EFD1E
:1020100020602046FEF712FF2046FEF727FF1348F8
:10202000012100F083F80023206869464FF0FF3259
:1020300001F092FE9DF80030012B07D0022B4FF0EB
:102040000A00F0D1FEF7EAFC03782BB901989DF85D
:10205000021003F0E9FFE6E701980021FEF70CFF0C
:10206000F4E700BF988E0020948E002000480040C6
:10207000038ACA889BB223F44053134330B50382CA
:10208000044682890B8988880D464989034392B2A8
:102090000B4322F4B05222F00C029BB21343A381F3
:1020A000A38AAA899BB223F4407385B01343A38209
:1020B000684600F077F9A189039A1A48029B09B291
:1020C000844208BF13462A68002903EB8303B4BF88
:1020D0005200920003EB83031349B3FBF2F3A1FB1D
:1020E0000352A089520900B26425002802FB15336F
:1020F0004FEA02120ADB1B013233A1FB0351C1F389
:1021000043110A4392B2228105B030BDDB00323365
:10211000A1FB0301C1F342110A4392B2228105B02F
:1021200030BD00BF003801401F85EB51838929B9BC
:1021300023F400531B041B0C838170479BB243F4B0
:1021400000538381704700BFC1F30801818070474D
:102150008088C0F30800704701F01F0310B4C1F37A
:1021600042110124A14204FA03F310D002290CBF4A
:102170001030143004682AB924EA030303605DF8C0
:10218000044B7047234303605DF8044B70470C30E9
:10219000F0E700BF10B4C1F34213012401F01F02A5
:1021A000A34204FA02F217D0022B0CBF038A838ADF
:1021B0009BB21340028892B253B1090A012303FA79
:1021C00001F111420CBF002001205DF8044B704763
:1021D00018465DF8044B704783899BB21340E9E7CA
:1021E00000222DE9F00713460E6801274FF003087F
:1021F00004E00133102B02F1020226D007FA03F4A7
:1022000004EA0605A542F4D191F804C008FA02F4E4
:102210000CFA02FAD0F80090E44304EA09090CF140
:10222000FF3C49EA0A09BCF1010FC0F800900FD940
:10223000CD79D0F80CC0954004EA0C0401332C434E
:10224000102BC46002F10202D8D1BDE8F00770473C
:1022500091F805A091F806C00AFA02FA0CFA03FCFC
:10226000D0F808901FFA8CFC04EA090949EA0A0927
:10227000C0F80890B0F804901FFA89F929EA05051A
:1022800045EA0C058580D3E7018370474183704799
:1022900001F0070310B49B000F249C4002FA03F3E3
:1022A000C90800EB8100026A22EA04040462026A9F
:1022B0005DF8044B13430362704700BF044B5A6838
:1022C000D20703D50349044AD960DA60704700BFDA
:1022D000003C0240EFCDAB8905040302024B5A6873
:1022E00042F001025A607047003C0240014B986185
:1022F000704700BF003C0240084B9A69D1070BD4DD
:102300009A69D20501D5022070479B6913F4F05FEA
:102310000CBF04200320704701207047003C02409E
:1023200010B5042382B08DF807300446FFF7E4FFB0
:102330008DF807009DF80730012B09D16CB1FFF72C
:10234000DBFF8DF807009DF80730013C012BF5D02D
:102350001CB19DF8070002B010BD05238DF80730B1
:102360009DF8070002B010BD10B504464FF40040C0
:10237000FFF7D6FF042804BF0023237010BD00BF61
:1023800038B504464FF400400D46FFF7C9FF042856
:1023900000D038BD25704FF40040BDE83840FFF74D
:1023A000BFBF00BF284B30B49B6803F00C030C2B5D
:1023B00008D8DFE803F0070707072F0707072B07F1
:1023C00007073300204B4FF400415A681F4BC2F3FC
:1023D0004232013201FA02F202601B498C68C4F3F6
:1023E00003141C44247BE24042608C68C4F3022442
:1023F0001C44247B22FA04F48460896830BCC1F355
:10240000C2210B441B7BDA40C2607047104A0F4B5D
:102410000260E2E70F4A0D4B0260DEE70A490B4B10
:102420008A688D68C2F383429A5C8C68D2B2E403F6
:1024300054BF084C064CC5F3815104FB02F2013134
:10244000B2FBF1F20260C8E7003802402C00002025
:1024500000127A000024F400044BDA6919B922EA68
:102460000000D86170471043D861704700380240BF
:10247000044B1A6A19B922EA000018627047104327
:102480001862704700380240044B5A6A19B922EAB0
:10249000000058627047104358627047003802408D
:1024A000044B5A6919B922EA000058617047104379
:1024B0005861704700380240044B9A6919B922EA02
:1024C00000009861704710439861704700380240DF
:1024D0004309012B054B00F01F000CBF1B685B6B11
:1024E00023FA00F000F00100704700BF00380240FE
:1024F000024B5A6B42F080725A63704700380240B8
:102500008A68F0B40C6A0B6914434A691C438B69EE
:10251000CE69224307684D6A13438C6A1E433543D4
:1025200027F4FF43CE680F684A682C4323F07003FA
:102530002343036046608760C260F0BC704700BF01
:1025400029B902684FF6FE731340036070470368B1
:1025500043F001030360704703681AB923EA0101DD
:102560000160704719430160704700BFC30054BF4A
:10257000034B044B1B6803420CBF00200120704733
:102580000060024000640240C30054BF014B024B94
:1025900058607047006002400064024008B5174B65
:1025A000984212D0164B98421BD0164B984200D03E
:1025B00008BD4FF400400121FFF77EFFBDE8084051
:1025C0004FF400400021FFF777BF4FF48050012106
:1025D000FFF766FFBDE808404FF480500021FFF789
:1025E0005FBF4FF480400121FFF766FFBDE8084060
:1025F0004FF480400021FFF75FBF00BF0030014073
:1026000000380040003C0040F0B40B884C888A88B9
:102610001C43CB8814430A891C434B898F8922436E
:102620000588CE891A433A43324305F44153134394
:102630009BB20380838B0A8A23F400631B041B0C68
:102640008383F0BC02827047038829B923F04003DA
:102650001B041B0C038070479BB243F040030380B4
:10266000704700BF83889BB21AB923EA01018180B9
:102670007047194381807047837930B42BB31D4B69
:1026800001681A68CC4322401A605D6802792C40C8
:1026900002F180425C6002F5823215684479294378
:1026A000116002689868D14308409860D868102C7F
:1026B00001EA0001D96014D004F1804303F58233AC
:1026C000196830BC0A431A6070470379016803F146
:1026D000804303F582331A6830BC22EA01021A6093
:1026E0007047996830BC11439960D9680A43DA6031
:1026F000704700BF00040140034B5B6918420CBFE8
:1027000000200120704700BF00040140014B5861C8
:10271000704700BF0004014001F003039B000F223B
:102720009A4000FA03F301F0FC0101F1804101F548
:102730008031886820EA02028A608A6813438B60CD
:10274000704700BF014B1860704700BF0030004069
:10275000014B5860704700BF00300040014B98604B
:10276000704700BF00300040024B4AF6AA221A60B0
:10277000704700BF00300040024B4CF6CC421A605C
:10278000704700BF0030004040F0BF60024B40F493
:102790000030D860704700BF00ED00E0C37810B48F
:1027A00063B90378012103F01F0291405B09174AC6
:1027B000203342F823105DF8044B7047144B4478E3
:1027C000DB680F22DB43C3F30223C3F10401C9B268
:1027D00004FA01F142FA03F38478C9B203EA04026D
:1027E00003780A43120103F16043D2B203F5614357
:1027F00083F800230378012103F01F029140034A6C
:102800005B0942F823105DF8044B704700E100E0DB
:1028100000ED00E01249134B10B599420BD2C843AA
:10282000184420F00300104C04300023E258CA5032
:1028300004338342FAD10D4B0D4A93420AD2D94355
:10284000114421F0030119440022043B43F8042FF2
:102850008B42FBD100F00EF8BDE81040FDF772BCD2
:10286000000000200801002078DD00080801002099
:10287000A48E0020414B30B41A68414842F4807263
:102880001A609C68002120409860186882B020F08F
:10289000885020F00110186018681A4620F4802033
:1028A0001860986820F47D009860D96000910191CB
:1028B000196841F48031196003E0009BB3F5A04F23
:1028C00009D0136803F400330193009B0133009394
:1028D000019B002BF1D0294B1B6813F4003318BF68
:1028E00001230193019B012B06D0264B4FF0006280
:1028F0009A6002B030BC7047234B20481A682349C5
:1029000042F004021A601A684FF4006442F00202B6
:102910001A601D680A4645F001051D60436A43F0D0
:10292000805343620C605368D906FCD4134B9A68F9
:1029300019469A609A689A609A689A609A6822F42E
:102940007D029A609A6842F411029A601A6842F015
:1029500080721A600B68094A9B01FBD59368114687
:1029600023F003039360936843F0030393608B6841
:1029700003F00C030C2BFAD1B7E700BF003802407C
:102980000CC0FF8800ED00E0003C024000700040F9
:1029900038B5084C084B25680A46002D08BF1D466F
:1029A0002B68596807F0FCFA68682060003018BF8F
:1029B000012038BD2C0500204800002038B5054610
:1029C000082000F003F9044660B100F0D3F9064B8B
:1029D00000219A682560616054609C6000F0DCF919
:1029E000012038BD38BD00BF480000202DE9F04768
:1029F000314F05467B68884691465BB11B6840466F
:102A00009B6849462A46984710B97860BDE8F08728
:102A1000BDE8F087294C7C6000E01C46D4F800A09B
:102A2000DAF80060304607F09DFA2A5C034612F09F
:102A3000DF0F284604D131461A4607F09BFA58B1F9
:102A400063687B60002BE8D140464A461C4907F08A
:102A5000A7FA0020BDE8F0879AF90C20002A10DBC5
:102A60002B783BB30446294603E0002411F8013FCC
:102A70005BB1202BF9D1012CF8D00130C0B2012478
:102A8000F4E77B68002BB9D1DEE7012C0FD07B681F
:102A9000094C002BD8D040B28242AFD040464A46C3
:102AA000084907F07DFA00206060BDE8F087013832
:102AB000C0B2ECE71846EAE72C05002048000020E9
:102AC00094CD00083CCD000830B40025156071B3EA
:102AD00003784BB3202B0BD0431C01E0202C07D0F4
:102AE000184613F8014B002CF8D1204630BC704733
:102AF000441C23782046202B04F10104F9D09BB11B
:102B000001358D42E4D113F0DF0F0BD00346C0F145
:102B10000105E918116013F8014F14F0DF0FF8D127
:102B20000029E3D10020E1E7184630BC7047084691
:102B3000DCE700BF00F108034FF0FF3100228160A5
:102B400080E80C00C3600361704700BF002303618D
:102B5000704700BF436830B49A6805688A609C6813
:102B60006A1C4B606160996030BC0861026070470C
:102B700030B40D686B1C11D000F1080200E01A4659
:102B800053681C68A542FAD204684B60013499600E
:102B90008A6051600861046030BC70470269536804
:102BA000F2E700BF42688168036910B491608168F0
:102BB0005C684A601A68844208BF5960013A002183
:102BC00001615DF8044B10461A607047F8B5044681
:102BD00000F068FA2A4B9A6892B92A4803F1140166
:102BE00021F0070147F6F87500F6441701265A60F0
:102BF000C0F84429C0F8485919600F604D609E60C4
:102C0000002C35D0083462071CBF24F007040834B8
:102C1000611E47F6F67291422FD81B68184D03E0EB
:102C20001A6822B11D46134659688C42F8D8164AD4
:102C3000934222D02E6818680A1B102A06F1080653
:102C400028600DD9181942605C6045680C4A00E0A4
:102C50001A46136859688D42FAD8036021461060FD
:102C60000A4B1A68511A196000F0C0FA3046F8BDD4
:102C7000264600F0BBFA3046F8BD0026F4E700BF58
:102C800038050020007C00204485002054000020EE
:102C900038B50546B8B100F005FA55F8044C0A4AB3
:102CA000A5F1080000E01A46136859688C42FAD86A
:102CB000064945F8083C0B6810601C440C60BDE8F0
:102CC000384000F093BA38BD380500205400002089
:102CD000014B1868704700BF540000200648006888
:102CE000006880F3088862B661B6BFF34F8FBFF308
:102CF0006F8F00DF00BF000008ED00E0074B10B44D
:102D00004FF0807440F8044C40F8081C40F8202C28
:102D100040F80C3C5DF8044B403870476D2D0008BE
:102D2000074B19680868B0E8F00F80F30988BFF313
:102D30006F8F4FF0000080F311884EF00D0E70473A
:102D400050850020044B4FF080521A60BFF34F8F24
:102D5000BFF36F8F704700BF04ED00E0EFF3118009
:102D60004FF0BF0181F311887047002008B5FFF7CD
:102D7000F5FFFEE708B5FFF7F1FF044B1A680132D3
:102D80001A60BFF34F8FBFF36F8F08BD580000204C
:102D900080F31188704700BF034B18680138186032
:102DA00000B17047FFF7F4BF58000020EFF309802F
:102DB000BFF36F8F0D4B1A6820E9F00F10602DE9FB
:102DC00008404FF0BF0080F3118800F0D7FA4FF0B1
:102DD000000080F31188BDE8084019680868B0E871
:102DE000F00F80F30988BFF36F8F70475085002084
:102DF00008B5FFF7B3FF00F077F918B1044B4FF0B7
:102E000080521A600020BDE80840FFF7C1BF00BF34
:102E100004ED00E00349044B47F6FF400722086039
:102E20001A60704714E000E010E000E008B5094BBC
:102E30001A6842F47F021A601A6842F07F421A60F0
:102E4000FFF7E8FF044B00221A60FFF747FFFFF788
:102E500085FFFEE720ED00E058000020074B1A68D0
:102E6000126822B9064B4FF0FF321A6070471A6899
:102E7000034BD268D26852681A6070474C850020B4
:102E80005C0000200C4B10B559689A6804469042CB
:102E900048600AD3186859680431FFF769FE074B88
:102EA0001A68944238BF1C6010BDD8685968BDE8E4
:102EB00010400431FFF75CBE4C8500205C00002010
:102EC0002DE9F04F814683B054200E4693469A4632
:102ED000DDF830800D9F0E9CFFF778FE0546002838
:102EE00000F0AF80002C00F09E8004634FEA8B025C
:102EF0002046A52106F0BBFF0BF1804B2B6B0BF19D
:102F0000FF3B03EB8B0B2BF0070B0024325D2B19DF
:102F100083F83420335D01340BB1102CF6D100233B
:102F2000B8F1090F34BF444609242E1D85F84330FB
:102F30002B65EC62EC643046FFF708FEC4F10A042E
:102F400005F11800FFF702FEAC612D616D62584675
:102F500049465246FFF7D2FE286007B13D603B4C20
:102F6000FFF708FF23690133236163689BB3D4F83B
:102F7000403133B304F11409EB6A012707FA03FC6B
:102F8000D4F84421D4F848E13A4403EB83006A645E
:102F90004CEA0E03314609EB8000C4F84831C4F80E
:102FA0004421FFF7D7FDFFF7F7FED4F84031274A59
:102FB0001BB15368DB6A984509D8384603B0BDE8B1
:102FC000F08F6368DB6A984528BF6560D2E7FFF73A
:102FD000B9FE3846F2E76560236904F11409012B54
:102FE000CAD104F1DC0B4F46DA4638461437FFF7F6
:102FF000A1FD5745F9D1164FA7F11400FFF79AFD2F
:103000003846FFF797FD07F11400FFF793FD07F12E
:103010002800FFF78FFD07F13C00FFF78BFDC4F898
:1030200000B0E760A8E74FEA8B0210460192FFF775
:10303000CDFD019A286300287FF45BAF2846FFF797
:1030400027FE4FF0FF3003B0BDE8F08F4C85002025
:103050003C86002030B5002485B000940194029491
:10306000039423460C480D497822FFF729FF0128D5
:1030700001D005B030BD00F057FB01280546F8D15E
:10308000FFF76CFE064BC3F840519C6005B0BDE8ED
:103090003040FFF7CBBE00BF113300081CCE000844
:1030A0004C850020034BD3F850210132C3F8502146
:1030B000704700BF4C85002010B5FFF75BFE034B47
:1030C0009C68FFF769FE204610BD00BF4C850020BC
:1030D00010B5FFF743FE034B9C68FFF759FE2046EF
:1030E00010BD00BF4C8500202DE9F84FDFF8F8B087
:1030F000DBF85031002B46D1DBF808300133CBF838
:103100000830DBF80870002F58D0364A13689F4209
:1031100047D3DFF8D480002508F1140A4FF00109E5
:1031200027E0D8F80030DB68DC686368261D9F4222
:1031300026D33046FFF736FDA36A04F118000BB121
:10314000FFF730FDE06ADBF8483109FA00FE00EBDA
:1031500080004EEA030331460AEB8000CBF8483189
:10316000FFF7F8FCDBF80430E16ADB6A994228BF1C
:103170000125DBF800301B68002BD2D14FF0FF3364
:10318000184A13600EE0DBF8583100250133CBF804
:103190005831DBF85C31002B18BF01252846BDE80B
:1031A000F88F0025DBF80430DB6A03EB83030BEBBD
:1031B00083035B69022B28BF0125EAE7DBF80030B7
:1031C000DBF80C10CBF80010CBF80C30DBF85431E6
:1031D0000133CBF85431FFF741FE024A13689F4296
:1031E000DFD396E75C0000204C8500202DE9F84FE6
:1031F000DFF8C4B0FFF7BEFDDBF85031013BCBF880
:103200005031DBF85031002B49D1DBF81030002B66
:1032100045D05D460BF11409DA4601271FE0D5F8C9
:103220001031DC68261D04F11800FFF7BBFC3046A6
:10323000FFF7B8FCE36AD5F8482107FA03FE03EB71
:10324000830031464EEA020309EB8000C5F848319D
:10325000FFF780FC6B68E26ADB6A9A4225D2DBF8F2
:1032600004314FF00108144A002BD8D1D2F858315C
:103270008BB1D2F8583173B10124FFF735FF08B193
:10328000CBF85C41DBF85831013BCBF85831DBF827
:103290005831002BF1D1DBF85C41012C08D000241F
:1032A000FFF77AFD2046BDE8F88FCAF85C81B4E7E5
:1032B000FFF748FDF4E700BF4C85002038B518B98A
:1032C000BDE83840FFF73EBD104CD4F85031013313
:1032D000C4F85031A56863680544181DFFF762FC07
:1032E00038B12846FFF7CEFDFFF780FF0028E7D072
:1032F00038BD63680121DB6AD4F8482101FA03F381
:1033000022EA0303C4F84831EBE700BF4C850020F4
:10331000194E08B5344609E0D4F85031D4F81851A4
:103320000133C4F85031FFF761FF5DB9D6F84C3175
:10333000002BF1D16369012B01D9FFF703FDFCF7E5
:103340004DFFF3E7FFF716FDD4F82431DD68281DA3
:10335000FFF728FC2369013B2361D4F84C31013B82
:10336000C4F84C31FFF718FD286BFFF791FC284695
:10337000FFF78EFCDAE700BF4C850020114BD3F835
:103380005021D2B9C3F85C21D3F84811B1FA81F1C8
:10339000C9B2C1F11F0103F1140201EB810102EB7B
:1033A00081014A6801F10800526882424A6004BF04
:1033B00052684A60D2685A6070470122C3F85C21A3
:1033C000704700BF4C85002038B5124C0D4661682F
:1033D0001831FFF7CDFB60680430FFF7E3FB50B90D
:1033E00063680121DB6AD4F8482101FA03F322EA79
:1033F0000303C4F848316B1C05D0A0682844BDE81D
:103400003840FFF73FBD616803480431BDE83840EC
:10341000FFF7A0BB4C8500207886002038B50E4C05
:103420000D4661681831FFF795FB60680430FFF7BF
:10343000B9FB50B963680121DB6AD4F8482101FA6D
:1034400003F322EA0303C4F84831A0682844BDE826
:103450003840FFF717BD00BF4C850020F8B5C368A2
:10346000174CDD6805F118063046FFF79BFBD4F8D2
:103470005031FBB92E1D3046FFF794FBEB6A012259
:103480009A40D4F8487103EB830304F114003A43E3
:10349000314600EB8300C4F84821FFF75BFB63680B
:1034A000EA6ADB6A06499A4286BF0120C1F85C01DC
:1034B0000020F8BD314604F58270FFF74BFBEEE7C4
:1034C0004C850020034BD3F854219B6880E80C0006
:1034D000704700BF4C85002070B50D460446FFF7CD
:1034E00049FC2A68124B511C98681CD02168D3F8FB
:1034F0005461B142616801D088420FD2461AB2428B
:103500000CD9121AD3F854619B6811442960002524
:1035100026606360FFF740FC284670BD0125FFF779
:103520003BFC284670BD0025FFF736FC284670BDE1
:103530004C850020024B0122C3F85C21704700BF7C
:103540004C850020064BD3F8402132B1D3F85031DE
:10355000002B14BF0020022070470120704700BFDD
:103560004C8500202DE9F0410446D0B1234DC36ABB
:103570006A68D26A934214D28269002A04DB6A68BC
:10358000D26AC2F10A0282611C4E03EB830306F188
:103590001407626907EB83039A4204D07368DB6AFD
:1035A000E362BDE8F08104F104084046FFF7FAFA4F
:1035B00078B9E36A03EB830206EB8202526942B9EF
:1035C000012202FA03F3D6F8482122EA0303C6F8DF
:1035D00048316B680126DB6AD5F848219E4003EB31
:1035E0008300E36246EA0203414607EB8000C5F828
:1035F0004831BDE8F041FFF7ADBA00BF4C8500206F
:103600002DE9F041044638B1036DC16AC26C013B3B
:103610009142036500D013B10020BDE8F081061D82
:103620003046FFF7BFFA88B9E36A164A03EB830115
:1036300002EB8101496951B9012101FA03F3D2F882
:10364000481121EA0303C2F8483100E00D4AE36C57
:10365000012505FA03F8D2F848C10B48C3F10A0E58
:1036600003EB8307E36200EB870048EA0C03314673
:10367000C4F818E0C2F84831FFF76CFA2846BDE8F4
:10368000F08100BF4C85002060850020044B5A6803
:103690001AB15A68116D013111655868704700BF41
:1036A0004C850020F8B50F4CFFF764FB25681DB171
:1036B000BDE8F840FFF770BB271D384604F1180637
:1036C000FFF738FA3046FFF735FA2A4608200C2172
:1036D000E762266300F03AFA2060BDE8F840FFF7A1
:1036E0005BBB00BFAC860020914208B50061416021
:1036F00005D88169D21A8A420CD3012008BD9A42AA
:1037000001D29942F9D2074B011DD86AFFF730FA6E
:10371000002008BD034B011D186BFFF729FA00209C
:1037200008BD00BFAC86002000B585B0FFF7BAFF2A
:10373000084B186858B1002309228DE80C00029349
:103740000393054805494FF40072FFF7B9FB05B034
:103750005DF804FBAC8600206D38000824CE00081C
:103760002DE9F0410D46804617461E4699B12C20A2
:10377000FFF72CFA044658B1FFF794FF069BC4F8F4
:103780000080A561E76126626362201DFFF7DEF914
:103790002046BDE8F0810C462046BDE8F08100BF20
:1037A00070B5144D84B02C6804B3052901910292C0
:1037B00003900BDCFFF7C6FE02280FD0002228681A
:1037C000134601A900F0EAF904B070BD1A4620467C
:1037D00001A9002300F080FA04B070BD286801A997
:1037E000089A002300F0DAF904B070BD204604B056
:1037F00070BD00BFAC8600202DE9F0431A4E83B0A7
:103800004FF00008B1460CE0DB68DC681F68251D3E
:103810002846FFF7C7F9636A20469847E369012BFA
:103820000AD0F36A10491A68002AEDD10A6B0B63BB
:10383000CA6203B0BDE8F083A369002107EB030E61
:10384000BE4520463A460B4608D9C4F804E0246138
:103850002946D9F82C00FFF78BF9E2E7CDF8008074
:10386000FFF79EFFDDE700BFAC8600202DE9F041A9
:10387000524C88B0E36A1E68D6F1010638BF0026B4
:10388000002E41D1DB681F68FFF70CFCFFF714FC2A
:10389000636B05469842DFF8248137D3C8F83400BB
:1038A0000EB9AF4241D9791B206800F0E7FAFFF763
:1038B0009DFC002836D0012700221346206805A968
:1038C00000F04AFA0028D5D0059B002BF4DB079EB8
:1038D000736913B1301DFFF765F9FFF7EDFB636BFB
:1038E00098421AD3059B6063092BE5D807FA03F3C6
:1038F00013F404753FD113F0C70F45D19B06DBD5F8
:103900003046FFF7C5F9D7E70027BDE7FFF774FF9B
:10391000C8F83450FFF76AFCCDE70390FFF76CFF5F
:103920000398DFE7FFF70EFAC5E7FFF75FFCD8F86B
:103930002C30DB68D3F80C8008F10400FFF732F973
:10394000D8F81C30012B04D0D8F8243040469847D2
:10395000B1E7D8F818102A46394440463B46FFF7ED
:10396000C3FE0128F0D1314600963A463346404620
:10397000FFF716FFE8E706990246B16113460144D6
:103980003046FFF7B1FE97E7069BB169024619443E
:103990003046FFF7A9FE01288ED1736A304698475A
:1039A000F369012B88D1B269069B29461A44009518
:1039B00030462B46FFF7F4FE7EE700BFAC860020C2
:1039C00038B5036C044615463BB90568002D2FD069
:1039D0000020A36B0133A36338BD1A4685B9806804
:1039E00006F03CFAA168236C62680B449342A36022
:1039F000EED323682846A360A36B0133A36338BDCD
:103A0000C06806F02BFA226CE36852422168134426
:103A10008B42E36002D263681A44E260022DD7D180
:103A2000A36B002BD4D0A36B0020013BA363D0E792
:103A30004068FFF7E5FD6560CBE700BF026C10B49E
:103A40006AB1C36844681344A342C36024BF0368D7
:103A5000C3605DF8044B0846194606F0FFB95DF8EF
:103A6000044B704738B50446FFF784F9A36C002B6C
:103A700014DD636A93B104F1240507E0A36C013BF4
:103A8000A364A36C002B09DD636A3BB12846FFF7F2
:103A9000E5FC0028F2D0FFF74DFDEFE74FF0FF33D4
:103AA000A364FFF779F9FFF765F9636C002B14DD68
:103AB000236993B104F1100507E0636C013B636473
:103AC000636C002B09DD23693BB12846FFF7C6FC78
:103AD0000028F2D0FFF72EFDEFE74FF0FF336364CD
:103AE000BDE83840FFF758B970B504460D46FFF7FA
:103AF00041F9206CE26B236802FB00F2101A99185E
:103B000000264FF0FF321844A66361606264E060F3
:103B1000A360A26475B923691BB9FFF73DF90120C1
:103B200070BD04F11000FFF799FC0128F5D1FFF7F3
:103B300009F9F2E704F11000FEF7FCFF04F124009C
:103B4000FEF7F8FFFFF728F9012070BD2DE9F041DD
:103B500005460E469046B8B15420FFF737F80446A4
:103B600090B106FB05F00130FFF730F80746206002
:103B700070B1E563266420460121FFF7B5FF84F8A4
:103B800050802046BDE8F08100242046BDE8F08149
:103B90002046FFF77DF83C46F3E700BF2DE9F043F0
:103BA000002585B00446894601921F46A84625E0B7
:103BB000FFF7F2F8FFF776FAFFF7DCF8636C0133F2
:103BC00008BFC4F84480A36C013308BFC4F8488020
:103BD000FFF7E2F802A801A9FFF77EFC002842D116
:103BE000FFF7C8F8A26BE36B9A4217D0FFF7D4F83F
:103BF0002046FFF737FFFFF7F9FA0125FFF7BAF87C
:103C0000A66BE06B86421AD3022F18D0019E26B312
:103C1000002DCDD102A8FFF755FCC9E7FFF7BCF88E
:103C200004F110000199FFF7CFFB2046FFF71AFFC0
:103C3000FFF7DCFA0028E0D1FFF784F8DDE749461A
:103C40003A462046FFF7BCFE636AABB9D0B9FFF72E
:103C5000A3F8012005B0BDE8F083FFF79DF83046DA
:103C600005B0BDE8F0832046FFF7FCFEFFF7BEFA83
:103C7000002005B0BDE8F08304F12400FFF7EEFB5F
:103C80000128E4D1FFF75EF8E1E700BF70B5064612
:103C90005420FEF79BFF0446D8B100254FF0FF33B8
:103CA00001228563C263436480F850608364456089
:103CB00005608560C56005641030FEF73BFF04F1C8
:103CC0002400FEF737FF204629462A462B46FFF7F9
:103CD00065FF204670BD00BF2DE9F04104461D463A
:103CE00088461746FFF73AF8E36B0646A06B984202
:103CF00008D3022D06D000253046FFF749F82846A4
:103D0000BDE8F08141462A462046FFF759FE10B132
:103D10000FB101233B60A36C013309D0A36C0125D3
:103D20002B443046A364FFF733F82846BDE8F08102
:103D3000636A33B930460125FFF72AF82846BDE803
:103D4000F08104F12400FFF789FB0028F2D0002F56
:103D5000F0D001253D60CFE72DE9F043002585B087
:103D600004468946019298462F4611E0FFF714F861
:103D70002368002B3FD004F124000199FFF724FBB6
:103D80002046FFF76FFEFFF731FA002830D00125FB
:103D9000FEF7F0FFA26B002A35D1019E002E4AD01B
:103DA00015B3FEF7F9FFFFF77DF9FEF7E3FF636C4C
:103DB000013308BF6764A26C013208BFA764FEF735
:103DC000EBFF02A801A9FFF787FB002839D1FEF716
:103DD000D1FFA36B002BC9D0FEF7DEFF2046FFF713
:103DE00041FEFFF703FAD2E702A8FFF76BFBD8E723
:103DF000FEF7A8FFCBE7FEF7BDFF6068FFF7B2FB59
:103E0000FEF7CAFFB7E749462046E568FFF716FE0A
:103E1000B8F1000F1ED1A26B2368013AA2634BB325
:103E20002369D3B104F11000FFF718FB012814D166
:103E3000FEF788FF11E0FEF7AFFF304605B0BDE8A2
:103E4000F0832046FFF70EFEFFF7D0F9002005B003
:103E5000BDE8F083636AE5602BB9FEF79DFF0120A2
:103E600005B0BDE8F08304F12400FFF7F7FA00285D
:103E7000F3D0DDE7FFF70AFC6060D1E738B5044610
:103E80000D46FEF777FF636C013304BF00236364C4
:103E9000A36C013304BF0023A364FEF77DFFA36B73
:103EA00023B9294604F12400FFF7B8FA2046BDE8FB
:103EB0003840FFF7D7BD00BF10B582B001AA02217C
:103EC000F020FCF749FB9DF8044002B29DF8050084
:103ED000044BC2F3072140EA04201A70597002B063
:103EE00010BD00BF9C8E0020014B1870704700BFB2
:103EF00060000020014B1878704700BF6000002070
:103F000070B582B002AD002305F8013D06460120E0
:103F10002A460146FCF720FB0E4C9DF8073000B204
:103F20002070012EC0F307224FF001000CBF43F0B8
:103F3000400323F04003627001462A468DF80730A3
:103F4000FCF7BCFA00B2C0F307232070637002B024
:103F500070BD00BF9C8E00202DE9F043594B5A4A9A
:103F6000034483B0002493428DF806408DF8074047
:103F700007D9564B564A0344934200F288800C22DC
:103F800000E00622534941F21E63A1FB0041890C67
:103F900001FB02F1994283BF01238DF806300F2007
:103FA00008204D4C4FF00F094FF0000C43B24FF07A
:103FB00001089DF806205E1E5D1C02F0FF077ABB1B
:103FC00034F813208A420AD834F815204FFA89F5BC
:103FD0008A4214D38DF806808DF80780E9E74FFAFE
:103FE0008CF29A1A34F8165002EBD272A0EB6202ED
:103FF000D2B28D4256B20BD88DF80680D9E7EB1AB3
:1040000003EBD37300EB63038446D8B243B2D0E72B
:10401000B34281460DBF3846334610460346C8E7D3
:104020009DF807209AB10E2B11DC2B4A2C4632F852
:10403000144032F813504A1B611A8A4238D227487A
:10404000184000281BDBC0B203B0BDE8F0839DF828
:104050000720002AF3D10E2BF1DC1F4A5C1E32F838
:10406000135032F814406A1A091B8A4228BF00F123
:10407000FF331A4828BF5BB218400028E3DA013842
:1040800060F007000130C0B203B0BDE8F083144B0C
:10409000144A0344934209D9134BA2F1B772A2F513
:1040A00058520344934206D820226BE7102269E756
:1040B000431C5BB2C3E70120FCF7FEF92146082050
:1040C0006FE700BF80A9A0D160D9AC0A801BFEE8D1
:1040D000E085120583DE1B432CCE0008070000801C
:1040E000409F2DEE2077FC02C0701EF770B50421B2
:1040F00082B00DEB01020820FCF72EFA9DF80510A6
:104100009DF8066049039DF807509DF8044001EBB7
:10411000461602B2064B06EBD50504F01F00C2F3AB
:10412000072105EB40501A70597002B070BD00BFF6
:104130009C8E002000B583B001210DF107020B20F9
:10414000FCF70AFA9DF8073000B20D4A03F00703A6
:10415000C0F30721012B1070517008D0032B0AD037
:10416000042B14BF0320022003B05DF804FB0020E1
:1041700003B05DF804FB012003B05DF804FB00BF51
:104180009C8E002000B583B002AA02F8010D012127
:104190006C20FCF793F9044B00B2C0F307221870AF
:1041A0005A7003B05DF804FB9C8E002000B583B00C
:1041B0000DF1070201216C20FCF7CEF9054B00B28E
:1041C000C0F3072218709DF807005A7003B05DF81D
:1041D00004FB00BF9C8E002000B583B00DF10702E8
:1041E00001210C20FCF7B8F9074A9DF80730116847
:1041F00002B201FB03F0054BC2F30721C00B1A709A
:10420000597003B05DF804FBE48600209C8E00200A
:1042100010B582B001AA02210E20FCF79DF99DF88D
:1042200004109DF805300E4A00B203EB01239BB247
:10423000C0F30724107054701A050A4A4CBF43F4A7
:104240007043C3F30B0310681BB200FB03F000289C
:10425000BCBF00F57F3000F2FF30801402B010BD0B
:104260009C8E0020E48600202DE9F04F002385B0CD
:10427000894692468DF807308046FFF73BFE344B67
:10428000021C18BF0122092502F10F0C18682C46E8
:10429000012109E0002C59DB20FA06F646458ABFC9
:1042A000FDB28DF807106CB29DF80730C4EB0C0618
:1042B0006F1E03F0FF0B002BECD024EAE47B5FFAC7
:1042C0008BFB4FFA8BF3C3F10C035FFA8BFB1A44A1
:1042D00008FA02F58009B5FBF0F5EDB2072D84BFB1
:1042E000083DEDB2EC1D00FB04F400218AF800B09B
:1042F0000B4602AF47F6FF7C5E19082ED8BF24FAA2
:1043000002F603F10103DABFC6EB08067E5227F876
:1043100001C0032B044401F10201EDD16A1ED2B2A7
:104320000DF1060303AD4FF6FF7433F9021F501C65
:104330000029B8BF4942A142BCBF89F800208CB215
:10434000AB42C2B2F1D105B0BDE8F08F0C23BEE79D
:10435000E486002010B582B004460DF10702012169
:104360001B20FCF7F9F89DF80730012C0CBF63F017
:104370007F0303F07F030DF1070201211B208DF85D
:104380000730FCF79BF8044B00B2C0F3072218700B
:104390005A7002B010BD00BF9C8E002000000000CB
:1043A0002DE9F041804682B0084603F057FF46A34E
:1043B000D3E9002303F0F4FD45A3D3E9002304F07F
:1043C000CBF804F081FA03F049FF43A3D3E90023BB
:1043D00004460D4603F096FF02460B46204629464A
:1043E00003F090FF02460B462046294603F08AFF61
:1043F00002460B462046294603F084FF38A3D3E942
:10440000002306460F462046294603F07BFF02465E
:104410000B462046294603F075FF02460B46204610
:10442000294603F06FFF02460B463046394603F03B
:10443000B7FD2DA3D3E9002306460F4620462946A3
:1044400003F060FF02460B462046294603F05AFF60
:1044500002460B463046394603F0A0FD24A3D3E9BB
:10446000002306460F462046294603F04BFF02462E
:104470000B463046394603F091FD1FA3D3E90023D4
:1044800003F08EFD03F010FD04F0FEF9C0B25A28CF
:1044900098BF8DF80700C8F1170088BF5A230DF1A7
:1044A00007024FF00101C0B288BF8DF80730FCF75A
:1044B00005F8134B00B2C0F3072218705A7002B00F
:1044C000BDE8F081AFF3008036AB3E575BD12240B0
:1044D000295C8FC2F5282840D862B7CF2A33B53F70
:1044E0005DDC4603780BF13F0ABFD4CF9B8AEA3FDD
:1044F0004C37894160253C40E5D022DBF91E47401E
:104500009C8E0020AFF3008010B582B00DF1070241
:10451000044601211820FCF71FF89DF807300DF123
:10452000070203F03F031C43012118208DF80740C8
:10453000FBF7C4FF034B00B2C0F3072218705A7098
:1045400002B010BD9C8E002010B582B00DF10702A4
:10455000044601211820FBF7FFFF9DF807300DF1FD
:10456000070223F007031C43012118208DF80740A0
:10457000FBF7A4FF034B00B2C0F3072218705A7078
:1045800002B010BD9C8E002030B583B002AC002379
:1045900004F8013D0546224601211E20FBF7DCFF01
:1045A0009DF80730012D0CBF63F07F0303F07F03FC
:1045B000224601211E208DF80730FBF77FFF044BB8
:1045C00000B2C0F3072218705A7003B030BD00BFAC
:1045D0009C8E002010B582B004460DF10702012127
:1045E0009E20FBF7B9FF9DF80730012C0CBF63F04C
:1045F0007F0303F07F030DF1070201219E208DF858
:104600000730FBF75BFF044B00B2C0F307221870C2
:104610005A7002B010BD00BF9C8E002000B583B060
:104620000DF1070201219E20FBF796FF02B29DF8D3
:104630000700044BC2F30721C0091A70597003B078
:104640005DF804FB9C8E00202DE9F04F934B944ABB
:104650000344934283B004462BD8FFF7D9FD0546A7
:10466000FFF7BAFD0DF1040B06465A4601216C20F6
:10467000FBF772FFDFF8589200B29DF80420C0F3F8
:10468000072102FB065589F8000089F80110FFF7A1
:10469000C5FF01302544C6B2FFF72CFC30B1814B79
:1046A0009D4240F2E880012000F0DAFE4FF0000861
:1046B00099E07D4B7D4A034493422DD8FFF7A8FD36
:1046C0000546FFF789FD0DF1040B06465A46012108
:1046D0006C20FBF741FFDFF8F89100B29DF8042051
:1046E000C0F3072102FB065589F8000089F8011084
:1046F000FFF794FF01302544C6B2FFF7FBFB00280B
:1047000000F0C6806A4B4FF001089D4294BF002024
:10471000012000F0A5FE66E0664B674A0344934221
:104720002DD8FFF775FD0546FFF756FD0DF1040B7B
:1047300006465A4601216C20FBF70EFFDFF89091E8
:1047400000B29DF80420C0F3072102FB065589F84A
:10475000000089F80110FFF761FF01302544C6B25F
:10476000FFF7C8FB002800F09680544B4FF002087A
:104770009D4294BF0020012000F072FE33E0504BB8
:10478000A2F1B772A2F558520344934279D8FFF7C9
:104790003FFD0546FFF720FD0DF1040B06465A4686
:1047A00001216C20FBF7D8FEDFF8249100B29DF8C0
:1047B0000420C0F3072102FB065589F8000089F8A0
:1047C0000110FFF72BFF01302544C6B2FFF792FB23
:1047D00000285AD03B4B4FF003089D4294BF002065
:1047E000012000F03DFE2846FFF7B6FB364B82461F
:1047F000984498F8D80004FB00F003F00DFD04463F
:10480000B0040D4603F018FD304B064618680F46FD
:1048100003F002FD02460B463046394603F09CFE8B
:1048200002460B462046294603F06CFD04F02CF8A6
:1048300098F82050C0F3445345EAC0055A4643EA6D
:104840004A1A440B4309042108208DF806308DF8DC
:1048500007508DF804A08DF80540FBF72FFE00B23D
:10486000C0F3072389F8000089F8013000F05EFCEE
:1048700003B0BDE8F08F002000F0F2FD4FF000081B
:10488000B1E70120FBF718FEE7E64FF00308AAE7BF
:104890004FF00108A7E74FF00208A4E780A9A0D1D4
:1048A00060D9AC0A0A1A4533801BFEE8E085120580
:1048B000058DA219409F2DEE2077FC02C3E9391324
:1048C000C0701EF7E1F49C092CCE0008E48600209D
:1048D0009C8E00202DE9F843FFF708FC0446FFF703
:1048E00029FC8046FFF79AFE8146204603F094FC9F
:1048F000134B044618680D4603F08EFC114B09F16A
:104900000109984406465FFA89F998F8D8004FEAF9
:10491000894900FB09F00F4603F08EFC02460B4666
:104920003046394603F018FE02460B46204629461B
:1049300003F0E8FC03F0B8FA03F0A6FFBDE8F88343
:10494000E48600202CCE000810B582B004460DF19C
:1049500007020121B420FBF7FFFD9DF80730012C71
:104960000CBF23F0080343F008030DF107020121F7
:10497000B4208DF80730FBF7A1FD044B00B2C0F363
:10498000072218705A7002B010BD00BF9C8E002024
:1049900010B582B00DF107020121B420FBF7DCFD58
:1049A0009DF8074002B2054BC4F3C000C2F30721D3
:1049B00080F001001A70597002B010BD9C8E00206A
:1049C0002DE9F04F002385B00746894690468DF8C3
:1049D0000730FFF78FFA002861D14FF0050C324BFA
:1049E0000F251A682C4601210AE0002C55DB22FA1B
:1049F00006F6BE428ABF5FFA8AF58DF807106CB2E0
:104A0000C4F114031E189DF8073005F1FF3A03F0B6
:104A1000FF0B002BE9D024EAE47B5FFA8BFB4FFA13
:104A20008BF6C6F117065FFA8BFB22FA0CF207FA37
:104A300006FCBCFBF2FC5FFA8CF101F1FF0002FB0B
:104A400000F088F800B0002302AC47F6FF78012997
:104A50001DBF20FA06F5C5EB0705E55224F80380D3
:104A60000233062B01F101011044F0D10CF1FF35A6
:104A700000234FF6FF7134F91320E818002AB8BF5D
:104A800052428A4203F10103BCBF91B289F800008F
:104A9000032BF0D105B0BDE8F08F1726C5E7FFF76F
:104AA00077FF00F1050C9AE7E48600202DE9F04F2E
:104AB000002387B005468DE806008DF80F30FFF71C
:104AC00019FA002840F0908001244B4A4B4B1268A1
:104AD0002C21B2FBF4F4A3FB0424494E494A0B46B3
:104AE00064094FF0590A4FF000094FF0010B9DF88F
:104AF0000F0002EB4307B846BC4690BBB88C04FBE2
:104B000000F0A6FB0070B5EBD02F13D9B8F8220047
:104B10004FFA89F704FB00F0A6FB00C0B5EBD02FDD
:104B20001CD9DB1B03EBD373A1EB63038A46D9B219
:104B30004BB2DCE7BCF826004FFA8AF704FB00F022
:104B4000A6FB00C0B5EBD02F08D2FB1A03EBD37342
:104B500001EB63038946D9B24BB2C8E78DF80FB0B9
:104B6000C5E7294A581E4FEA430CDFF8948002EB50
:104B70004000ADB20DF10E02CCF1000C5B0005AEB1
:104B800002300CEB00071F4437F8027C04FB07F7E8
:104B9000A8FB0797A5EBD72722F8027FB242EFD1F7
:104BA0004A1E0DF10E03D2B24FF6FF7533F9020F14
:104BB000541C0028B8BF4042A842BCBFD1B285B245
:104BC0009E42E2B2F2D1114B49B283FB01C3CA1734
:104BD000C2EB630303EBC302891A019A1370009BB3
:104BE000197007B0BDE8F08FFFF7D2FE00280CBFA8
:104BF0000124022469E700BFE48600201F85EB51F1
:104C0000FD33A6C92CCE000850CE0008398EE338FB
:104C10002DE9F04387B00446FFF76CF9A02306AAFC
:104C200002F8113D012107469F20FBF747FC606811
:104C3000B4F90030820902FB03F3A349DA1781FBC0
:104C40000353C2EB2339002F40F0AF809F4DDFF8B4
:104C50008082D8F80020A168930949024FEA0939F7
:104C600001EBD21299FBF3F9C9F30326B2FBF3F37C
:104C70008DF810308DF812608DF8139000F05AFB0B
:104C80000DF10A020121A320FBF766FC9DF80A3012
:104C90000DF10A0223F002030121A3208DF80A304E
:104CA000FBF70CFC20690DF101010DF10202FFF789
:104CB00087FE627B9DF802609DF8013016436069B3
:104CC0000DF1030101AA8DF80C308DF80D60FFF78E
:104CD000CBFA9DF804209DF80330A06943EA021343
:104CE0000DF105010DF106028DF80E30023FFFF7C0
:104CF000DDFE9DF805209DF80630FFB243EA021361
:104D0000012F8DF80F30724B40F291801868714B73
:104D1000984246D0704B984243D0704B98423CD05A
:104D20006F4B984239D06F4B984232D06E4B9842BD
:104D30002FD06C4B984288BF400803F06DFA60A3F7
:104D4000D3E9002303F064FD4FF0010300B90346EB
:104D5000D8B2FFF7D5F804F10C0201216C20FBF763
:104D6000ADFB04AA04210C20FBF7A8FB042103AA35
:104D70001A20FBF7A3FB03B2C3F3072201202B7019
:104D80006A70FFF701FC6068FFF75EFC07B0BDE8E2
:104D9000F083A3238DF81130CBE7AC238DF81130CD
:104DA000C1E7B6238DF81130B7E76320FBF7B2FBFC
:104DB000464D00268DF808609DF80830FF2B09D07D
:104DC0009DF808300133DBB28DF808309DF80830CB
:104DD000FF2BF5D100F062FB2B785B08402BE9D16B
:104DE000DFF8EC80414AD8F800300026934294BFA7
:104DF00000200120FFF7A8FD6220FBF78BFB8DF858
:104E000009609DF80930FF2B09D09DF80930013366
:104E1000DBB28DF809309DF80930FF2BF5D100F099
:104E20003DFB2B785B08032BE9D1606811E71B6819
:104E3000284A934218D0294A934224D0294A9342BF
:104E400027D1A3238DF80B308DF8113007200121D5
:104E50000DF10B02FBF732FB00B2C0F30723287001
:104E6000D8F800006B7064E7B6228DF80B208DF83F
:104E700011201D4A9342E9D13122A3238DF80B2042
:104E80008DF81130E2E7AC228DF80B208DF811205F
:104E9000EFE7114A934206D13B22B6238DF80B204F
:104EA0008DF81130D2E70E4A9342E2D13622AC237C
:104EB0008DF80B208DF81130C8E700BFAFF30080EC
:104EC0000000000084D7774183DE1B439C8E0020C6
:104ED000E486002000366E01006CDC0240787D0123
:104EE00080F0FA0280BA8C0100751903FF6BDC02B6
:104EF000014B1868704700BFE4860020014B186022
:104F0000704700BFE486002008B5FBF703FB034BA6
:104F100000B2C0F3072218705A7008BD9C8E0020A2
:104F20002DE9F04F744B754A0344934283B0044615
:104F30001BD8FFF76DF90646FFF74EF90546FFF758
:104F400035F9264405FB0065FFF768FB0130C6B262
:104F5000FEF7D0FF30B16A4B9D4240F2BA8001208B
:104F600000F07EFA4FF0000969E0664B664A0344A0
:104F700093421DD8FFF74CF90646FFF72DF9054679
:104F8000FFF714F9264405FB0065FFF747FB0130E6
:104F9000C6B2FEF7AFFF002800F0A8805B4B4FF0D1
:104FA00001099D4294BF0020012000F059FA46E01B
:104FB000574B584A034493421DD8FFF729F9064638
:104FC000FFF70AF90546FFF7F1F8264405FB0065EF
:104FD000FFF724FB0130C6B2FEF78CFF002800F07B
:104FE00088804D4B4FF002099D4294BF0020012064
:104FF00000F036FA23E0494BA2F1B772A2F55852FD
:10500000034493426BD8FFF703F90646FFF7E4F831
:105010000546FFF7CBF8264405FB0065FFF7FEFACF
:105020000130C6B2FEF766FF00285CD03C4B4FF063
:1050300003099D4294BF0020012000F011FA284688
:10504000FEF78AFFDFF8E080824618F80900B30413
:1050500000FB03F003F0F0F80F460646FFF748FFA9
:105060008346204603F0D8F8044658460D4603F020
:10507000D3F802460B463046394603F06DFA024635
:105080000B462046294603F03DF903F0FDFBC844DA
:1050900098F80450C0F34453042145EAC00543EA9C
:1050A0004A1A440B43090DEB010208208DF8063023
:1050B0008DF807508DF804A08DF80540FBF7FEF938
:1050C000184B00B2C0F3072218705A7003B0BDE845
:1050D000F08F002000F0C4F94FF00009AFE7012085
:1050E000FBF7EAF925E74FF00309A8E74FF00109BC
:1050F000A5E74FF00209A2E780A9A0D160D9AC0AC8
:105100000A1A4533801BFEE8E0851205058DA219B9
:10511000409F2DEE2077FC02C3E93913C0701EF7C3
:10512000E1F49C099C8E002008CF00082DE9F04F87
:1051300085B0FFF7DDFE0646FEF7DCFE4E4B8246ED
:105140009E4270D84FF0000BFFF7C4FB04AD19234B
:1051500005F8013D2A4601210190484CA120FBF7AA
:10516000ADF9012000F0F0F800F098F923785B0821
:10517000402B70D04FF000096620FFF7C5FE00F00D
:105180008DF923785B080F2BF9D100F005F98046E3
:105190006220FFF7B9FE00F081F923785B08032B4A
:1051A000F9D1354B9E4202D9BAF1010F4BD065209F
:1051B000FFF7AAFE00F072F923785B080F2BF9D1F4
:1051C00000F0EAF807466220FFF79EFE00F066F95D
:1051D00023785B08032BF9D1B9F1000F47D10020E8
:1051E00000F0B2F8BBF1000F16D1234B9E4202D95A
:1051F000BAF1010F10D011232A460121A1208DF808
:105200000F30FBF75BF9404600F0DEF8384600F05F
:1052100001F905B0BDE8F08F0020FFF7DBF9019838
:10522000FFF77EFEE7E7FFF7F9F900288AD1FFF7DD
:1052300051FB04460120FFF7CDF92046FFF770FE31
:105240004FF0010B80E7019B03F5EA2000F22C40B0
:10525000FFF766FEABE76220FFF756FE00F01EF98F
:1052600023785B08032BF9D14FF0010984E7632011
:10527000FFF74AFEB3E700BF80BA8C019C8E002086
:1052800030B5254C83B023780BB903B030BDFFF7A0
:105290002FFE0546FEF72EFE0128024629D01F49A3
:1052A0001F4B09681F480B4483422CD9032A17D08F
:1052B0000020FFF729F902AD112305F8013D2A4628
:1052C0000121A920FBF7FAF820232A460121A52075
:1052D0008DF80730FBF7F2F80023237003B030BDE0
:1052E000114B124A0B449342E2D88020FFF70CF98D
:1052F000E1E70F4B9D42094D09D82968084B094A3F
:105300000B449342D4D8C020FFF7FEF8D3E72868B7
:10531000FFF706FEF1E700BF61000020E8860020ED
:10532000802E0FF700D0121340AA8FCCC0CF6A0096
:1053300080BA8C01024A034B022111701860704739
:1053400061000020E886002030B583B005460DF1ED
:10535000070201215020FBF7FFF80E4C9DF80730A3
:1053600000B2012DC0F3072220700CBF43F00203EE
:1053700023F00203627001210DF1070250208DF825
:105380000730FBF79BF800B2C0F30723207063706F
:1053900003B030BD9C8E002000B583B00DF1070234
:1053A0000121E520FBF7D8F802B29DF80700054B74
:1053B000C2F3072100F07F001A70597003B05DF846
:1053C00004FB00BF9C8E002070B582B00DF1070277
:1053D000054601216E20FBF7BFF89DF8071003B2C8
:1053E0000B4C21F07F01C3F307260D430DF107029B
:1053F00001216E2023708DF807506670FBF75EF870
:1054000000B2C0F307232070637002B070BD00BF0C
:105410009C8E002070B582B00DF107020546012177
:105420006F20FBF799F89DF8071003B20B4C21F0A1
:105430007F01C3F307260D430DF1070201216F2001
:1054400023708DF807506670FBF738F800B2C0F390
:1054500007232070637002B070BD00BF9C8E0020D7
:1054600010B582B004460DF1070201219E20FBF722
:1054700073F89DF80730012C03F0F9030CBF43F0DB
:10548000020343F004030DF1070201219E208DF871
:105490000730FBF713F802B010BD00BF00B583B0B2
:1054A00001210DF10702C020FBF756F8024B1880CE
:1054B00003B05DF804FB00BF9C8E0020F0B583B004
:1054C00001AE0446324601215120FBF745F89DF814
:1054D00004E0444D03B22EF0200EC3F307274EF034
:1054E000010E3246012151202B708DF804E06F70BF
:1054F000FAF7E4FF03B2C3F30727324601214F2036
:105500002B706F70FBF728F89DF804E003B2C3F32B
:1055100007272EF0300E324601214F202B708DF8D8
:1055200004E06F70FAF7CAFF237BE27A012B00B226
:105530000CBF08270027637AC0F307213A4328707D
:105540008DF804206970002B42D0013BDBB2227839
:105550006078A17B1043A27A0129277A8DF8053063
:10556000637B8DF8072008BF42F0100240EA070075
:1055700008BF8DF80720012B8DF806002BD00421E1
:1055800030203246FAF79AFF617800234908C1F1CA
:1055900003011F468B42A8BF60684FEAC302AABF3F
:1055A00020FA02F2F754F2540133042BF2D1A07A1C
:1055B00000B1012000F06CF8324604213620FAF7E1
:1055C0007DFF00B2C0F3072328706B7003B0F0BDFD
:1055D00001226272BBE79DF8073043F001038DF8AA
:1055E0000730CCE79C8E002000B583B00DF1070298
:1055F00001213020FAF7B0FF9DF80710064B00B2EA
:1056000011F0180FC0F3072218700CBF0020012002
:105610005A7003B05DF804FB9C8E002030B583B057
:105620000446FFF7E1FF054600F01AF8002D18BF09
:10563000013083B22344191202AA02F8041D342057
:1056400002218DF80530FAF739FF044B00B2C0F3A0
:10565000072218705A7003B030BD00BF9C8E002026
:1056600000B583B00DF1070201213020FAF774FF75
:1056700002B29DF80700054BC2F3072100F00700B6
:105680001A70597003B05DF804FB00BF9C8E0020B7
:1056900030B583B005460DF1070201214F20FAF71E
:1056A0005BFF0E4C9DF8073000B2012DC0F30722BE
:1056B00020700CBF43F0010323F00103627001214D
:1056C0000DF107024F208DF80730FAF7F7FE00B210
:1056D000C0F307232070637003B030BD9C8E0020A0
:1056E00010B582B00DF10702044601213320FAF70C
:1056F00033FF9DF807300DF1070223F00C031C4324
:10570000012133208DF80740FAF7D8FE034B00B291
:10571000C0F3072218705A7002B010BD9C8E002092
:105720002DE9F00F00231D4C9C460B6099464FF06D
:10573000010800231F46D658C558043335402E0CA7
:105740005FFA86FAC5F3072B14F80AA014F80BB019
:10575000EDB23612655DA65DDA4455443544EDB2CE
:10576000142B2F44E7D1FB0705D551F8293043EA24
:10577000080341F829305FEA480805D109F1010919
:1057800041F829804FF001080CF1010CBCF1300FF9
:1057900002F11402CDD1BDE8F00F704770CF0008C0
:1057A0002DE9F04F0D4689B004461A4928460622D5
:1057B00004F045FB002840F0BE832B78242B23D136
:1057C000AB792C2B20D1AA786878EB78504080F008
:1057D0002C002A7958406B795040072258408DF8A8
:1057E0000C20012600E00A46AB5C511C1F2B0BD994
:1057F0002A2B11D02C2B83EA0000F4D108AB3344C0
:1058000003F8141C0136EEE76FF0010009B0BDE8A3
:10581000F08F00BF70D900080309092B94BF303303
:105820003733695CDBB2994202F10202ECD100F03D
:105830000F000928AB5C94BF303037308342E3D18E
:105840000B2EE1DD9DF80C30EA5C2B44303AD1B2EE
:10585000092905D859783039C8B2092840F244825C
:105860004FF0FF331E46A3619DF814202366A95C08
:105870002A443039C8B2092805D850783038C7B220
:10588000092F40F2A18101224FF4FA61E160226107
:10589000626101336AD02269D4F81C80531E0B2B3D
:1058A000D4F820906069E76840F3E482BF4AD917D2
:1058B00082FB03C2C1EB620202EB42011744A3EB7D
:1058C0008103BB4AF91782FB07C24FF4C87AC1EBC8
:1058D000E21C0AFB1C7CBCF1000F00F0E082C1EB73
:1058E0006212642101FB127222B117F0030F14BF80
:1058F0000022012202EB4202AE49DFF8C4A203EB10
:10590000820351F82320DAF800301044DB0700F15D
:10591000FF3C40F1C682DFF8ACB2A54A7B1E82FB99
:105920000312D917C1EBE21040F26D1A0AFB030013
:10593000A1EB62120244002B4FF46160B8BFBB1CA4
:1059400000FB06F0DBF8007002EBA303DB1B9A4EB2
:105950009C4406FB0C06C8EB0818626A06EB880339
:105960004B44B2F5FA7FA8BF0133A3629DF80E60E5
:105970009DF80F10AB5D6F5C303BDAB2092A2E4404
:1059800005D87278303AD1B2092940F24C819DF89D
:1059900010609DF81110AB5D6F5C303BDAB2092AE4
:1059A0002E4405D87278303AD1B2092940F2958058
:1059B0009DF8126015F806C0A819BCF12B0F00F075
:1059C0000D82BCF12D014B424B410022A264AE5D21
:1059D000303EF1B209290FD81146074601EB81018B
:1059E00006EB4101A16417F8016F0132303E5FFA06
:1059F00086F8B8F1090FF1D91344C25C2E2A00F0E1
:105A0000D3810122BCF12D0F63D0B3B1642AA36C02
:105A100012D0632A40F3A6816548D11780FB02C2E9
:105A2000002BC1EB6212D6BF02EBD27103EB620313
:105A3000A3EB610393FBF2F3A3649DF81360AF5DE6
:105A4000A8192B2F00F0AE81B7F12D02534253411C
:105A50000022E264AD5D303DE9B209290FD811465C
:105A6000064601EB810105EB4101E16416F8015F97
:105A70000132303D5FFA85FCBCF1090FF1D91344C6
:105A8000C25C2E2A00F0748101222D2F1DD0002B24
:105A900000F06082642AE36C12D0632A40F35C81D8
:105AA0004348D11780FB0252002BC1EB6212D6BFD4
:105AB00002EBD27103EB6203A3EB610393FBF2F3FE
:105AC0000120E36409B0BDE8F08FE16C4942E16474
:105AD000DDE7A16C4942A16497E7B1783039C8B2DB
